{
  "abi": [
    {
      "inputs": [
        {
          "internalType": "string",
          "name": "_challenge",
          "type": "string"
        }
      ],
      "stateMutability": "nonpayable",
      "type": "constructor"
    },
    {
      "inputs": [],
      "name": "getChallenge",
      "outputs": [
        {
          "internalType": "string",
          "name": "",
          "type": "string"
        }
      ],
      "stateMutability": "view",
      "type": "function"
    },
    {
      "inputs": [
        {
          "internalType": "string",
          "name": "_newChallenge",
          "type": "string"
        }
      ],
      "name": "setNewChallenge",
      "outputs": [],
      "stateMutability": "nonpayable",
      "type": "function"
    }
  ],
  "bytecode": {
    "object": "0x608060405234801561001057600080fd5b5060405161075738038061075783398101604081905261002f91610058565b600061003b82826101aa565b5050610269565b634e487b7160e01b600052604160045260246000fd5b6000602080838503121561006b57600080fd5b82516001600160401b038082111561008257600080fd5b818501915085601f83011261009657600080fd5b8151818111156100a8576100a8610042565b604051601f8201601f19908116603f011681019083821181831017156100d0576100d0610042565b8160405282815288868487010111156100e857600080fd5b600093505b8284101561010a57848401860151818501870152928501926100ed565b600086848301015280965050505050505092915050565b600181811c9082168061013557607f821691505b60208210810361015557634e487b7160e01b600052602260045260246000fd5b50919050565b601f8211156101a557600081815260208120601f850160051c810160208610156101825750805b601f850160051c820191505b818110156101a15782815560010161018e565b5050505b505050565b81516001600160401b038111156101c3576101c3610042565b6101d7816101d18454610121565b8461015b565b602080601f83116001811461020c57600084156101f45750858301515b600019600386901b1c1916600185901b1785556101a1565b600085815260208120601f198616915b8281101561023b5788860151825594840194600190910190840161021c565b50858210156102595787850151600019600388901b60f8161c191681555b5050505050600190811b01905550565b6104df806102786000396000f3fe608060405234801561001057600080fd5b50600436106100365760003560e01c8063759014f01461003b5780639e93e5d414610059575b600080fd5b61004361006e565b60405161005091906101d4565b60405180910390f35b61006c61006736600461021d565b610100565b005b60606000805461007d906102ce565b80601f01602080910402602001604051908101604052809291908181526020018280546100a9906102ce565b80156100f65780601f106100cb576101008083540402835291602001916100f6565b820191906000526020600020905b8154815290600101906020018083116100d957829003601f168201915b5050505050905090565b806040516020016101119190610308565b6040516020818303038152906040528051906020012060006040516020016101399190610324565b60405160208183030381529060405280519060200120036101a05760405162461bcd60e51b815260206004820152601860248201527f4368616c6c656e676520616c7265616479206578697374730000000000000000604482015260640160405180910390fd5b60006101ac82826103e9565b5050565b60005b838110156101cb5781810151838201526020016101b3565b50506000910152565b60208152600082518060208401526101f38160408501602087016101b0565b601f01601f19169190910160400192915050565b634e487b7160e01b600052604160045260246000fd5b60006020828403121561022f57600080fd5b813567ffffffffffffffff8082111561024757600080fd5b818401915084601f83011261025b57600080fd5b81358181111561026d5761026d610207565b604051601f8201601f19908116603f0116810190838211818310171561029557610295610207565b816040528281528760208487010111156102ae57600080fd5b826020860160208301376000928101602001929092525095945050505050565b600181811c908216806102e257607f821691505b60208210810361030257634e487b7160e01b600052602260045260246000fd5b50919050565b6000825161031a8184602087016101b0565b9190910192915050565b6000808354610332816102ce565b6001828116801561034a576001811461035f5761038e565b60ff198416875282151583028701945061038e565b8760005260208060002060005b858110156103855781548a82015290840190820161036c565b50505082870194505b50929695505050505050565b601f8211156103e457600081815260208120601f850160051c810160208610156103c15750805b601f850160051c820191505b818110156103e0578281556001016103cd565b5050505b505050565b815167ffffffffffffffff81111561040357610403610207565b6104178161041184546102ce565b8461039a565b602080601f83116001811461044c57600084156104345750858301515b600019600386901b1c1916600185901b1785556103e0565b600085815260208120601f198616915b8281101561047b5788860151825594840194600190910190840161045c565b50858210156104995787850151600019600388901b60f8161c191681555b5050505050600190811b0190555056fea26469706673582212205f086b9855aad1117e098789d78fd626f147b0622aa53618ba508effe40a1c7e64736f6c63430008150033",
    "linkReferences": {}
  },
  "methodIdentifiers": {
    "getChallenge()": "759014f0",
    "setNewChallenge(string)": "9e93e5d4"
  },
  "id": 0
}