{
  "abi": [
    {
      "inputs": [
        {
          "internalType": "string",
          "name": "_passCode",
          "type": "string"
        }
      ],
      "stateMutability": "nonpayable",
      "type": "constructor"
    },
    {
      "inputs": [],
      "name": "getCode",
      "outputs": [
        {
          "internalType": "string",
          "name": "",
          "type": "string"
        }
      ],
      "stateMutability": "view",
      "type": "function"
    },
    {
      "inputs": [
        {
          "internalType": "string",
          "name": "_newCode",
          "type": "string"
        }
      ],
      "name": "setNewCode",
      "outputs": [],
      "stateMutability": "nonpayable",
      "type": "function"
    }
  ],
  "bytecode": {
    "object": "0x608060405234801561001057600080fd5b5060405161075738038061075783398101604081905261002f91610058565b600061003b82826101aa565b5050610269565b634e487b7160e01b600052604160045260246000fd5b6000602080838503121561006b57600080fd5b82516001600160401b038082111561008257600080fd5b818501915085601f83011261009657600080fd5b8151818111156100a8576100a8610042565b604051601f8201601f19908116603f011681019083821181831017156100d0576100d0610042565b8160405282815288868487010111156100e857600080fd5b600093505b8284101561010a57848401860151818501870152928501926100ed565b600086848301015280965050505050505092915050565b600181811c9082168061013557607f821691505b60208210810361015557634e487b7160e01b600052602260045260246000fd5b50919050565b601f8211156101a557600081815260208120601f850160051c810160208610156101825750805b601f850160051c820191505b818110156101a15782815560010161018e565b5050505b505050565b81516001600160401b038111156101c3576101c3610042565b6101d7816101d18454610121565b8461015b565b602080601f83116001811461020c57600084156101f45750858301515b600019600386901b1c1916600185901b1785556101a1565b600085815260208120601f198616915b8281101561023b5788860151825594840194600190910190840161021c565b50858210156102595787850151600019600388901b60f8161c191681555b5050505050600190811b01905550565b6104df806102786000396000f3fe608060405234801561001057600080fd5b50600436106100365760003560e01c806343378ab21461003b578063ea87963414610050575b600080fd5b61004e6100493660046101c6565b61006e565b005b61005861011e565b604051610065919061029b565b60405180910390f35b8060405160200161007f91906102ce565b6040516020818303038152906040528051906020012060006040516020016100a79190610324565b604051602081830303815290604052805190602001200361010e5760405162461bcd60e51b815260206004820152601860248201527f5061737320636f646520616c7265616479206578697374730000000000000000604482015260640160405180910390fd5b600061011a82826103e9565b5050565b60606000805461012d906102ea565b80601f0160208091040260200160405190810160405280929190818152602001828054610159906102ea565b80156101a65780601f1061017b576101008083540402835291602001916101a6565b820191906000526020600020905b81548152906001019060200180831161018957829003601f168201915b5050505050905090565b634e487b7160e01b600052604160045260246000fd5b6000602082840312156101d857600080fd5b813567ffffffffffffffff808211156101f057600080fd5b818401915084601f83011261020457600080fd5b813581811115610216576102166101b0565b604051601f8201601f19908116603f0116810190838211818310171561023e5761023e6101b0565b8160405282815287602084870101111561025757600080fd5b826020860160208301376000928101602001929092525095945050505050565b60005b8381101561029257818101518382015260200161027a565b50506000910152565b60208152600082518060208401526102ba816040850160208701610277565b601f01601f19169190910160400192915050565b600082516102e0818460208701610277565b9190910192915050565b600181811c908216806102fe57607f821691505b60208210810361031e57634e487b7160e01b600052602260045260246000fd5b50919050565b6000808354610332816102ea565b6001828116801561034a576001811461035f5761038e565b60ff198416875282151583028701945061038e565b8760005260208060002060005b858110156103855781548a82015290840190820161036c565b50505082870194505b50929695505050505050565b601f8211156103e457600081815260208120601f850160051c810160208610156103c15750805b601f850160051c820191505b818110156103e0578281556001016103cd565b5050505b505050565b815167ffffffffffffffff811115610403576104036101b0565b6104178161041184546102ea565b8461039a565b602080601f83116001811461044c57600084156104345750858301515b600019600386901b1c1916600185901b1785556103e0565b600085815260208120601f198616915b8281101561047b5788860151825594840194600190910190840161045c565b50858210156104995787850151600019600388901b60f8161c191681555b5050505050600190811b0190555056fea26469706673582212203b13050db8a573f8357720b9b8125f0d33b23d53bfd32100f9b216e8e7c799d864736f6c63430008150033",
    "linkReferences": {}
  },
  "methodIdentifiers": {
    "getCode()": "ea879634",
    "setNewCode(string)": "43378ab2"
  },
  "id": 2
}